:040000004DEF0EF0C2
:1009000000CC4E434B03CC41434B0300136E48EFE6
:1009100005F013C000F1AA0E1318D8A492EF04F04A
:1009200094EF04F09DEF04F0090E456E010E0101F5
:10093000016FF9EC10F065EF05F0BB0E1318D8A4A9
:10094000A4EF04F0A6EF04F0ACEF04F0010E456E46
:10095000F6EC10F065EF05F0F7EC0FF065EF05F041
:1009600013C001F1090E456E65EF05F003EC11F0BF
:100970000009D8B4BEEF04F0C0EF04F0D6EF04F0E5
:10098000000E4A24D96EDA6A010EDA2213C0DFFFA4
:100990004A2A442A050E4464D0EF04F0D2EF04F052
:1009A00065EF05F0080E456E65EF05F001EC11F0FE
:1009B0000009D8B4DEEF04F0E0EF04F065EF05F0D5
:1009C000000E4A24D96EDA6A010EDA2213C0DFFF64
:1009D0004A2A442A01010151060D4450106E116A41
:1009E000F350105CF4501158D8A0F9EF04F0FBEF6D
:1009F00004F065EF05F0D2EF04F003EC11F000090C
:100A0000D8B405EF05F007EF05F01CEF05F013C0B3
:100A100008F1000E076E010E086E02EC0CF00101E9
:100A20000819D8A416EF05F018EF05F0ACEF04F0A4
:100A3000010E436E65EF05F001EC11F00009D8B42A
:100A400024EF05F026EF05F0ACEF04F04AC012F0F9
:100A5000000E1224D96EDA6A010EDA2213C0DFFF0B
:100A6000000E066E010E076E96EC0CF0106E000E76
:100A70001224D96EDA6A010EDA22DE501018D8A4D8
:100A800044EF05F046EF05F0ACEF04F018EF05F089
:100A90004550106E116A1150000AD8B452EF05F09B
:100AA00065EF05F01050000AD8B489EF04F0010A90
:100AB000D8B4B0EF04F0090AD8B4FDEF04F0010A8D
:100AC000D8B4B6EF04F065EF05F0120003EC11F0B6
:100AD0000009D8B46EEF05F070EF05F0B3EF05F044
:100AE00020EE02F00850D9260950DA22DF50D8B49F
:100AF0007CEF05F07EEF05F0AFEF05F020EE02F0A1
:100B00000850D9260950DA22070EDF608AEF05F077
:100B10008CEF05F0AFEF05F020EE02F00850D9267B
:100B20000950DA22020EDE18D8B499EF05F09BEFD7
:100B300005F0AAEF05F020EE02F00850D926095082
:100B4000DA22030EDE18D8A4A8EF05F0AAEF05F00C
:100B5000ACEF05F0010E3D6E010E40EF06F0F7EC34
:100B60000FF03FEF06F001EC11F00009D8B4BBEF35
:100B700005F0BDEF05F03FEF06F0000E0F6E000E22
:100B80000E6E000E0D6E1FEF06F00E5008240A6E5A
:100B90000F5009200B6E020E0A24D96E000E0B2096
:100BA000DA6EDF50D8B4D7EF05F0D9EF05F01AEFC1
:100BB00006F00E5008240A6E0F5009200B6E020E2C
:100BC0000A24D96E000E0B20DA6E070EDF60EBEF01
:100BD00005F0EDEF05F01AEF06F03F2A0E5008245D
:100BE0000A6E0F5009200B6E020E0A24D96E000EF9
:100BF0000B20DA6E020EDE18D8B401EF06F003EF18
:100C000006F018EF06F00E5008240A6E0F50092067
:100C10000B6E020E0A24D96E000E0B20DA6E030E44
:100C2000DE18D8A416EF06F018EF06F01AEF06F05B
:100C3000010E3D6E060E0E26000E0F220D2A20EE2E
:100C400001F00850D9260950DA22DE500D5CD8A0F8
:100C50002CEF06F02EEF06F0C5EF05F020EE01F0C8
:100C60000850D9260950DA223F50DE18D8A43BEFAD
:100C700006F03DEF06F0AFEF05F0ACEF05F0000E2B
:100C800012001C6E080E1518D8B449EF06F04BEF91
:100C900006F05DEF06F0130E1518D8B452EF06F00B
:100CA00054EF06F05DEF06F0140E1518D8A45BEFB4
:100CB00006F05DEF06F061EF06F0F7EC0FF0ECEFF9
:100CC00006F0FCEC10F0ECEF06F01550F0EC08F03C
:100CD0000E6E1550E8EC0AF039EC0FF01550F0EC00
:100CE00008F00E6E1550E8EC0AF07AEC0FF00DEFFC
:100CF00007F01550F0EC08F00E6E1550E8EC0AF015
:100D000039EC0FF01550F0EC08F00E6E1550E8ECD1
:100D10000AF0B1EC0FF00DEF07F01550F0EC08F011
:100D20000E6E1550E8EC0AF05BEC0FF01550F0EC8D
:100D300008F00E6E1550E8EC0AF0B1EC0FF00DEF74
:100D400007F01550F0EC08F00E6E1550E8EC0AF0C4
:100D5000B1EC0FF01550F0EC08F00E6E1550E8EC09
:100D60000AF0E2EC0FF00DEF07F03950040D000E21
:100D7000F324D96E030EF420DA6E16C0DEFF17C01E
:100D8000DEFF18C0DEFF19C0DEFF3950D8A4CBEF5C
:100D900006F0CDEF06F0E5EF06F01950181009E166
:100DA000A70E165C400E1758D8B0D9EF06F0DBEF4F
:100DB00006F0E5EF06F016C001F017C002F018C00B
:100DC00003F019C004F096EC0FF0392A0DEF07F08C
:100DD000E5EC0EF00DEF07F01C501A6E1B6A1B506D
:100DE000000AD8B4F6EF06F0E8EF06F01A50010A50
:100DF000D8B465EF06F0030AD8B479EF06F0010A1B
:100E0000D8B48DEF06F0070AD8B4A1EF06F0020AB5
:100E1000D8B4B5EF06F0E8EF06F01200306EAAEF96
:100E200007F010EC0EF020C019F021C01AF022C01B
:100E30001BF023C01CF01F5034EC10F0CBEF07F078
:100E400010EC0EF01FC016F01F50F0EC08F00E6E04
:100E50001F50E8EC0AF010EC0FF0246E2450176ECF
:100E6000186A196A1A6A305056EC0DF0CBEF07F089
:100E700010EC0EF0000E2C6E000E2D6E000E2E6E7D
:100E8000000E2F6E000E2B6E000E2A6E1F50F0EC1F
:100E900008F00E6E1F50E8EC0AF095EC0DF00EC055
:100EA00028F00FC029F028502C2629502D22000EA2
:100EB0002E22000E2F222A4A2B2A040E2B5CD8A0A9
:100EC00064EF07F066EF07F046EF07F02CC024F060
:100ED0002DC025F02EC026F02FC027F00B0E76EF88
:100EE00007F0D8902732263225322432E82E71EFCF
:100EF00007F024C02CF025C02DF026C02EF027C00E
:100F00002FF01FC016F02CC017F02DC018F02EC007
:100F100019F02FC01AF0305056EC0DF0CBEF07F05F
:100F200020C001F021C002F022C003F023C004F071
:100F300047EC10F010EC0EF0CBEF07F0000E1D6E3A
:100F4000030E1E6ED6EC10F0CBEF07F0E5EC0EF0C2
:100F5000CBEF07F03050246E256A2550000AD8B434
:100F6000B4EF07F0A6EF07F02450010AD8B411EF50
:100F700007F0030AD8B420EF07F0010AD8B438EF1D
:100F800007F0070AD8B490EF07F0020AD8B49EEF32
:100F900007F0A6EF07F012001050116E126AD890F9
:100FA00011361236D8901136123611500E24136EA7
:100FB00012500F20146E040E1324D96E000E14204C
:100FC000DA6EDECF15F0DDCF16F0D8901536163676
:100FD000D89015361636151E161E154A162A15C037
:100FE0001BF016C01CF01050040DF3CF11F0F4CF1D
:100FF00012F011500E24D96E12500F20DA6E030E2B
:10100000DB500CE1020EDB5009E1A70EDE5C400E66
:10101000DE58D8B00EEF08F010EF08F021EF08F01E
:101020000E01C991CE80C9A118EF08F01AEF08F09F
:1010300013EF08F0C9911C50CD6E1BC0CCFF68EFB8
:1010400008F01050040DF3CF11F0F4CF12F011504E
:101050000E24D96E12500F20DA6EDECF01F0DECFF3
:1010600002F0DECF03F0DECF04F0E80E056E030ED3
:10107000066E000E076E000E086EB0EC0BF001C09D
:1010800017F002C018F003C019F004C01AF051EFB5
:1010900008F00B0E116E620EE82EFED7112EFCD753
:1010A00000D01706000E185A195A1A5A17280AE1C2
:1010B000182808E1192806E11A28D8A462EF08F0D8
:1010C00064EF08F049EF08F01C50CD6E1BC0CCFF58
:1010D000120003EC11F00009D8B471EF08F073EFBF
:1010E00008F09FEF08F0000E016E010E026E000E78
:1010F000036E000E046E000E056E000E066EF5EC1B
:1011000009F001C032F002C033F003C034F004C073
:1011100035F003C11FF032C020F033C021F034C0DD
:1011200022F035C023F0010102510EEC07F0000E51
:10113000106E020E116ED3EC0DF0EFEF08F001EC23
:1011400011F00009D8B4A7EF08F0A9EF08F0EFEF0D
:1011500008F0000E376E000E366E000E316EE3EFB3
:1011600008F0000E016E010E026E36C003F037C0AB
:1011700004F0056A066AF5EC09F001C032F002C01D
:1011800033F003C034F004C035F0030E3624D96EBA
:10119000010E3720DA6EDF501F6E32C020F033C0F0
:1011A00021F034C022F035C023F0020E3624D96E6F
:1011B000010E3720DA6EDF500EEC07F0060E3626F1
:1011C000000E3722312A01010151315CD8A0EBEF2A
:1011D00008F0EDEF08F0B1EF08F097EF08F012001B
:1011E0000B6E0A0E0A6E000E0D6E000E0C6E61EF95
:1011F00009F01C0E0B64FFEF08F001EF09F004EF9B
:1012000009F0080E75EF09F00CC001F00DC002F0F6
:10121000000E046E030E036E6DEC10F0600E0124E0
:10122000D96E000E0220DA6EDE500B5CD8A01BEFE8
:1012300009F01DEF09F05FEF09F00CC001F00DC0DF
:1012400002F0000E046E030E036E6DEC10F0630EE0
:101250000124D96E000E0220DA6EDE500B5CD8B08D
:1012600034EF09F036EF09F05FEF09F00CC001F040
:101270000DC002F0000E046E030E036E6DEC10F054
:10128000600E0124D96E000E0220DA6EDF50076E68
:101290000CC001F00DC002F0000E046E030E036ED0
:1012A0006DEC10F0620E0124D96E000E0220DA6E91
:1012B000DF50086E0750085C0B2475EF09F00C4AEC
:1012C0000D2A0A50076E086A07500C5C0D50800A00
:1012D000096E0850800A0958D8A071EF09F073EF21
:1012E00009F0F9EF08F001EF09F0120003EC11F03A
:1012F0000009D8B47EEF09F080EF09F0A6EF09F0FD
:10130000000E016E010E026E000E036E000E046EE2
:10131000000E056E000E066EF5EC09F001C01EF021
:1013200002C01FF003C020F004C021F003C115F07B
:101330001EC016F01FC017F020C018F021C019F011
:101340000101025141EC06F0F4EF09F001EC11F05B
:101350000009D8B4AEEF09F0B0EF09F0F4EF09F0EE
:10136000000E236E000E226E000E1D6EEAEF09F0D5
:10137000000E016E010E026E22C003F023C004F0C5
:10138000056A066AF5EC09F001C01EF002C01FF004
:1013900003C020F004C021F0030E2224D96E010EF8
:1013A0002320DA6EDF50156E1EC016F01FC017F036
:1013B00020C018F021C019F0020E2224D96E010EAF
:1013C0002320DA6EDF5041EC06F0060E2226000ED6
:1013D00023221D2A010101511D5CD8A0F2EF09F062
:1013E000F4EF09F0B8EF09F0120003500124076E82
:1013F00004500220086E040E0724D96E000E082047
:10140000DA6EDF50096E09C00AF00B6A0C6A0D6AC9
:101410000AC00DF00C6A0B6A0A6A0AC00EF00BC013
:101420000FF00CC010F00DC011F003500124076E36
:1014300004500220086E050E0724D96E000E082005
:10144000DA6EDF50096E09C00AF00B6A0C6A0D6A89
:101450000BC00DF00AC00CF00B6A0A6A0A500E129B
:101460000B500F120C5010120D501112035001248A
:10147000076E04500220086E060E0724D96E000E77
:101480000820DA6EDF50096E09C00AF00B6A0C6A98
:101490000D6A0CC00DF00BC00CF00AC00BF00A6A0C
:1014A0000A500E120B500F120C5010120D50111248
:1014B00003500124076E04500220086E070E072413
:1014C000D96E000E0820DA6EDF50096E09500E1238
:1014D0000EC001F00FC002F010C003F011C004F004
:1014E000120003EC11F00009D8B479EF0AF07BEF99
:1014F0000AF09AEF0AF020EE03F00850D9260950BE
:10150000DA221D0EDF6087EF0AF089EF0AF096EF0E
:101510000AF0000E456E000E446E000E3F6E000E87
:10152000406E020E4A6E010EE7EF0AF0F7EC0FF084
:10153000E6EF0AF001EC11F00009D8B4A2EF0AF0CE
:10154000A4EF0AF0E6EF0AF0000E0E6E000E0D6E2C
:10155000000E0F6EC6EF0AF00D5008240A6E0E50F2
:1015600009200B6E030E0A24D96E000E0B20DA6ED2
:101570001C0EDF60BEEF0AF0C0EF0AF0C1EF0AF008
:10158000402A060E0D26000E0E220F2A20EE01F034
:101590000850D9260950DA22DE500F5CD8A0D3EFCC
:1015A0000AF0D5EF0AF0ACEF0AF020EE01F0085097
:1015B000D9260950DA224050DE18D8A4E2EF0AF00A
:1015C000E4EF0AF096EF0AF089EF0AF0000E12003D
:1015D0000B6E0A0E0A6E000E0D6E000E0C6E43EFBF
:1015E0000BF01C0E0B64F7EF0AF0F9EF0AF0FCEFBA
:1015F0000AF0080E57EF0BF00CC001F00DC002F01E
:10160000000E046E030E036E6DEC10F0600E0124EC
:10161000D96E000E0220DA6EDE500B5CD8A013EFFC
:101620000BF015EF0BF041EF0BF00CC001F00DC00B
:1016300002F0000E046E030E036E6DEC10F0630EEC
:101640000124D96E000E0220DA6EDE500B5CD8B099
:101650002CEF0BF02EEF0BF041EF0BF00CC001F074
:101660000DC002F0000E046E030E036E6DEC10F060
:10167000610E0124D96E000E0220DA6EDF5057EFA2
:101680000BF00C4A0D2A0A50076E086A07500C5CD2
:101690000D50800A096E0850800A0958D8A053EFEF
:1016A0000BF055EF0BF0F1EF0AF0F9EF0AF0120032
:1016B000000E066E02BE61EF0BF05FEF0BF067EFFE
:1016C0000BF0016C021ED8B0022A010E066E04BE99
:1016D0006EEF0BF06CEF0BF072EF0BF0036C041E6F
:1016E000D8B0042A03500410D8B479EF0BF07BEF84
:1016F0000BF09FEF0BF0010E056E83EF0BF0D8900F
:1017000003360436052A04AE88EF0BF08AEF0BF09F
:101710007FEF0BF00350015C04500258D8A093EF08
:101720000BF095EF0BF099EF0BF00350015E0450B6
:10173000025AD89004320332052E8AEF0BF006507D
:10174000D8B4A5EF0BF0A7EF0BF0ABEF0BF0016CEB
:10175000021ED8B0022A01C001F002C002F012003D
:10176000000E096E000E0A6E000E0B6E000E0C6E5F
:101770000550061007100810D8B4C1EF0BF0C3EFE6
:101780000BF0F9EF0BF0010E0D6ECDEF0BF0D890D2
:1017900005360636073608360D2A08AED2EF0BF0AE
:1017A000D4EF0BF0C7EF0BF0D89009360A360B36A2
:1017B0000C360550015C065002580750035808507B
:1017C0000458D8A0E6EF0BF0E8EF0BF0F1EF0BF0C8
:1017D0000550015E0650025A0750035A0850045A39
:1017E0000980D89008320732063205320D2ED4EF28
:1017F0000BF009C001F00AC002F00BC003F00CC0EE
:1018000004F0120020EE03F00750D9260850DA2227
:10181000DF50096E20EE02F00750D9260850DA2278
:10182000DF500A6E0B6A20EE04F00750D9260850EC
:10183000DA22DF500C6E0C500A26000E0B2220EE2E
:1018400005F00750D9260850DA22DF500D6E0D50F2
:101850000A26000E0B2220EE06F00750D92608506B
:10186000DA22DF500E6E0E500A26000E0B2220EEFA
:1018700007F00750D9260850DA22DF500F6E0F50BC
:101880000A26000E0B2209500A24016E000E0B20BE
:10189000026E000E046EAA0E036E58EC0BF001509F
:1018A0001200CBEC10F00009D8B459EF0CF05BEF4C
:1018B0000CF05FEF0CF05AEC10F086EC04F04350A3
:1018C000D8B465EF0CF067EF0CF051EF0CF0000EA0
:1018D000086E010E096E66EC05F00009D8B473EFCE
:1018E0000CF075EF0CF051EF0CF0000E086E010ECD
:1018F000096E71EC0AF00009D8B481EF0CF083EFA7
:101900000CF051EF0CF076EC09F0FFEC10F0000950
:10191000D8B48DEF0CF08FEF0CF091EF0CF069EC78
:1019200008F021EC10F051EF0CF01200000E0D6EDB
:10193000000E0C6E20EE01F00650D9260750DA2278
:10194000DF50086E0850060DF3CF0AF0F4CF0BF00D
:10195000010E0E6EB9EF0CF00E500624D96E000E7B
:101960000720DA6EDF50086E08500C26000E0D229C
:101970000E2A010E0A24086E000E0B20096E0E506E
:10198000085C000E0958D8B0C8EF0CF0CAEF0CF094
:10199000ACEF0CF00CC001F00DC002F0000E046EB4
:1019A000BB0E036E86EC0EF001501200000E0E6EA0
:1019B000000E0D6E20EE01F00650D9260750DA22F7
:1019C000DF50086E0850060DF3CF09F0F4CF0AF08F
:1019D000010E09240B6E000E0A200C6E010E0F6E14
:1019E000FFEF0CF00F500624D96E000E0720DA6EC0
:1019F000DF50086E08500D26000E0E220F2A0F50E1
:101A00000B5C000E0C58D8B008EF0DF00AEF0DF08B
:101A1000F2EF0CF00DC001F00EC002F0000E046EEB
:101A2000DD0E036E86EC0EF001501200186E0F50A2
:101A3000101011101210D8B420EF0DF022EF0DF09D
:101A40003BEF0DF00EC013F0010E146E132A2BEFB6
:101A50000DF0D8901436132E29EF0DF01850156E96
:101A6000166A820E1524D96E0F0E1620DA6E1450E7
:101A7000DF1255EF0DF00EC013F0010E146E132A95
:101A800044EF0DF0D8901436132E42EF0DF01450A1
:101A9000FF0A156E1850166E176A820E1624D96E3C
:101AA0000F0E1720DA6E1550DF1612001B6EDD0EBA
:101AB0000201006F49C001F2020E3A24D96EDA6ABF
:101AC000020EDA221BC0DFFF030E3A24D96EDA6A57
:101AD000020EDA2216C0DFFF040E3A24D96EDA6A4B
:101AE000020EDA221AC0DFFF050E3A24D96EDA6A36
:101AF000020EDA2219C0DFFF060E3A24D96EDA6A26
:101B0000020EDA2218C0DFFF070E3A24D96EDA6A15
:101B1000020EDA2217C0DFFF4950060DF350020F04
:101B20003B6E060E3A26492A1200126EB5EF0DF0F2
:101B30000E50CAEC0FF001C00EF002C00FF0D2EF51
:101B40000DF00E50080FCAEC0FF001C00EF002C0ED
:101B50000FF0D2EF0DF00E50100FCAEC0FF001C0D5
:101B60000EF002C00FF0D2EF0DF01250106E116A9D
:101B70001150000AD8B4BFEF0DF0CEEF0DF01050A9
:101B8000000AD8B498EF0DF0010AD8B4A1EF0DF017
:101B9000030AD8B4ABEF0DF0CEEF0DF0000E0F6ED0
:101BA000080E0E6E1200000E066E020E076ED6ECC8
:101BB0000CF0126E000E3B24D96EDA6A020EDA22A5
:101BC00012C0DFFF3D50D8B4E8EF0DF0EAEF0DF0A2
:101BD0000BEF0EF00CEC10F00009D8B4F2EF0DF0A2
:101BE000F4EF0DF00BEF0EF0000E136E02EF0EF09F
:101BF000000E1324D96EDA6A020EDA22DF50B4EC3A
:101C000010F0132A13503B5CD8B009EF0EF00BEF25
:101C10000EF0F8EF0DF0000E3A6E010E496E120054
:101C2000060EF66E090EF76E20EE02F0040E0900A5
:101C3000F5CFDEFFE806FBE23D50D8A422EF0EF020
:101C400024EF0EF04CEF0EF03C50D8A42AEF0EF02B
:101C50002CEF0EF04CEF0EF00CEC10F00009D8B4A5
:101C600034EF0EF036EF0EF04CEF0EF0000E076E74
:101C7000020E0724D96EDA6A000EDA22DF50B4ECC5
:101C800010F0072A040E076448EF0EF04AEF0EF03A
:101C900038EF0EF0010E3C6E1200700EF66E1D0E47
:101CA000F76E000EF86E00EE60F010EE5AF00900CC
:101CB000F5CFEEFFE550E150FAE10A0EF66E220E86
:101CC000F76E000EF86E0900F5CF49F00900F5CF68
:101CD0004AF003EE00F0C80EEE6AE806FDE102EEFF
:101CE00000F0AB0EEE6AE806FDE101EE00F0AB0E8F
:101CF000EE6AE806FDE100EE38F0110EEE6AE80645
:101D0000FDE1000EF86E0001E7EF10F00350041043
:101D1000D8B48DEF0EF08FEF0EF0B3EF0EF0010E92
:101D2000056E97EF0EF0D89003360436052A04AE00
:101D30009CEF0EF09EEF0EF093EF0EF00350015C5F
:101D400004500258D8A0A7EF0EF0A9EF0EF0ADEFA7
:101D50000EF00350015E0450025AD8900432033250
:101D6000052E9EEF0EF001C001F002C002F012003D
:101D70000000000108080200000808080900070A1E
:101D800000060B02001308081501001D1C000000CE
:101D9000000108080200000808080900070A0006F8
:101DA0000B02001308081501001D1C0000000001B3
:101DB00008080200000808080900070A00060B02CC
:101DC000001308081501001D1C00010EF66E090E17
:101DD000F76E20EE02F0040E0900F5CFDEFFE806F4
:101DE000FBE20CEC10F00009D8B4F9EF0EF0FBEFB9
:101DF0000EF00FEF0FF0000E076E020E0724D96EE3
:101E0000DA6A000EDA22DF50B4EC10F0072A040E72
:101E100007640DEF0FF00FEF0FF0FDEF0EF0120063
:101E2000146E14500F6E106A8C0E0F24D96E0F0EA4
:101E30001020DA6EDF50116E0EC012F0010E136E1C
:101E4000122A25EF0FF0D8901336122E23EF0FF041
:101E500013501114156E0EC00FF015C010F00F2A9C
:101E600034EF0FF0D89010320F2E32EF0FF01050E9
:101E70001200126E0EC00FF0010E106E0F2A43EF0B
:101E80000FF0D89010360F2E41EF0FF01050FF0AD0
:101E9000116E12C001F0026A000E046E080E036E8D
:101EA0006DEC10F00C0E0124D96E0F0E0220DA6ECC
:101EB0001150DF161200116E0EC00FF0010E106EE1
:101EC0000F2A65EF0FF0D89010360F2E63EF0FF04A
:101ED00011C001F0026A000E046E080E036E6DEC74
:101EE00010F00C0E0124D96E0F0E0220DA6E105085
:101EF000DF121200146E0EC00FF0010E106E0F2ACA
:101F000084EF0FF0D89010360F2E82EF0FF01050A4
:101F1000FF0A116E1450126E136A870E1224D96EC6
:101F20000F0E1320DA6E1150DF16120001C005F0FB
:101F300002C006F0D89005360636D890053606362B
:101F4000051E061E054A062A05C007F006C008F051
:101F50000E01C991CE800850CD6E07C0CCFFCE9047
:101F60001200136E0EC00FF0010E106E0F2ABBEFA1
:101F70000FF0D89010360F2EB9EF0FF01350116EEE
:101F8000126A870E1124D96E0F0E1220DA6E1050CD
:101F9000DF121200056E05C05AFF0F015B815BB1B5
:101FA000D4EF0FF0D6EF0FF0CFEF0FF05E515FCF11
:101FB00003F0046A03C004F0036A0310016E0450C6
:101FC000026E12000F6E0F50D8A4E9EF0FF0EBEF86
:101FD0000FF0F6EF0FF0020E0E18D8A4F2EF0FF08C
:101FE000F4EF0FF0F6EF0FF00F012E8B1200000E42
:101FF000456EE5EC0EF0000E446E020E4A6E000EC9
:102000003F6E000E406E000E436EE0EC10F0000ECE
:10201000426E000E416E1200000E016E0E01C8A944
:1020200014EF10F016EF10F01FEF10F09DAA1BEF49
:1020300010F01DEF10F01FEF10F0010E016E0150B7
:102040001200E0EC10F0000E426E000E416E000E29
:102050003D6E000E3C6E000E3E6E000E436E000E96
:10206000386E000E396E12001D6E1D50F0EC08F037
:102070000E6E19C00FF01AC010F01BC011F01CC07A
:1020800012F01D50E8EC0AF016EC0DF012000150B1
:10209000021003100410D8A450EF10F052EF10F00B
:1020A00057EF10F0200E0F012E1B59EF10F001C05A
:1020B0002FFF12000E01C8AB60EF10F062EF10F0BE
:1020C0005AEF10F09CA267EF10F069EF10F06BEF81
:1020D00010F09C989C889850120001500302F3CF96
:1020E00005F0F4CF06F001500402F350062602502A
:1020F0000302F350062605C001F006C002F01200EC
:10210000BF0E896E000E0F010C6F000E1C6F000ECB
:10211000146F0F0E0E01B06F090EF06F1200A8ECD5
:1021200010F0C0EC10F080EC10F0EDEC10F0F2ECE0
:1021300010F09CEC10F01200000ECF6E000ED06E6E
:10214000030ED16E0E01C991C181370ECE6E120001
:10215000600E0E01D36F000ED56F000ED76F060E06
:10216000D96F000ED86F1200016E0E01C8A9BBEF27
:1021700010F0BDEF10F0B5EF10F001C099FF1200A4
:10218000080E9E6E900E9C6E240E9D6E440E9A6EEE
:10219000000E9B6E12000E01C8BBD1EF10F0D4EF01
:1021A00010F0010ED5EF10F0000E12001DC00EF061
:1021B0001EC00FF038C010F0CCEC07F0382A120027
:1021C000000E486E000E476E000E466E12008FEC39
:1021D00010F051EC0CF000EF00F00F015B8F5B8909
:1021E0005B851200800E0F012E6F1200010E476EEC
:1021F0001200010E486E1200010E466E120046508B
:0C2200001200475012004850120001026A
:020000040030CA
:0C0000008CFFFFFF9FFFFFFFFFFFFFFFD3
:00000001FF
